:020000020000FC
:1000000002C042C044C00FE50DBF02E00EBF0FEFBB
:100010000ABB07BB0FE005BF00EC0BBF789400E004
:1000200008BB2DD010EC1BBB2AD010E31BBB27D084
:100030001CE01BBB24D013E01BBB21D0513009F0C6
:10004000EECF00E00BBB1BD010E818BB18D010E4BB
:1000500018BB15D010E218BB12D010E118BB0FD09E
:1000600018E018BB0CD014E018BB09D012E018BB84
:1000700006D011E018BB03D0503089F2E2CF4030F7
:10008000C9F0413079F00895513021F029F4413020
:1000900029F031F450E018955395189540E01895E3
:1000A0004395189524E332EF3A95F1F72A95E1F755
:1000B0000000089520ED3AEC3A95F1F72A95E1F722
:0400C000000008959F
:00000001FF
