:020000020000FC
:060000000EC07AC07CC0B6
:10001C0064C010E00FE50DBF02E00EBF0FEF0ABB8E
:10002C0007BB04BB0FE005BF00EC0BBF05E003BF33
:10003C0003E008BF01E009BF00E801BF789451302C
:10004C00A9F120FF05C0403009F03BC0222700C0B9
:10005C00113059F008F091F430FD19D004E00BBBCD
:10006C0008BB00E105BB4BD0EACF30FD15D000E159
:10007C000BBB04E008BB05BB42D0E1CF30FD11D077
:10008C0000E108BB04E005BB0BBB39D0D8CF08E0BE
:10009C0008BB35D03327089508E005BB30D0332793
:1000AC00089508E00BBB2BD03327089503E60BBB58
:1000BC0008BB05BB24D000E00BBB08BB05BB1FD0A5
:1000CC00BECF4A9500E10BBB08BB05BB18D000E0C6
:1000DC000BBB08BB05BB13D0B2CF40FD0FC01395B3
:1000EC003395133009F051F4112708C04AE02395D9
:1000FC0005C05395112751FD552700C0189563E68F
:0E010C0079EF7A95F1F76A95E1F70000089512
:00000001FF
