:020000020000FC
:100000000FE50DBF02E00EBF07E0302E05E0402EE9
:1000100005E0502E04E0602E0AE0702E20C02395EB
:10002000122F322F117031F001F4333061F098F05B
:100030003350FBCF363059F010F03650FBCF032D44
:10004000050D0F930CC0042D060D0F9308C0032D52
:10005000060D0F9304C0042D050D0F9300C0271546
:10006000F1F6F9F0122F322F117031F001F4333024
:1000700061F098F03350FBCF363059F010F0365025
:10008000FBCF0F91800E2A950CC00F91900E2A95F0
:1000900008C00F91A00E2A9504C00F91B00E2A95AA
:0A00A00000C0203009F0F1F6FFCF98
:00000001FF
