:020000020000FC
:100000000FE50DBF02E00EBFF0E0E2E2D0E0C2E794
:1000100028E00BD0F0E0E2E2B0E0ACED28E029D03F
:10002000FFCF020305040607090805910F932A95DF
:10003000E1F700C00F9105D014D023952830D1F7F7
:1000400049F3243011F018F042F411E00895203003
:10005000E1F32330D1F310E008952730B1F310E03D
:100060000895113021F001F410E0199308950993D7
:10007000089505910F932A95E1F7189600C00F9106
:100080001F91010F04D023952430C9F749F2203085
:1000900031F0213039F0223011F0233019F005D041
:1000A00007D0089505D001D0089510E01E9308955B
:0600B00003950E93089574
:00000001FF
